:020000040000FA
:10000000C0020010690100007101000073010000CE
:100010007501000077010000790100000000000078
:100020000000000000000000000000007B01000054
:100030007D010000000000007F0100008101000040
:1000400083010000830100008301000083010000A0
:100050008301000083010000830100008301000090
:100060008301000083010000830100008301000080
:100070008301000083010000830100008301000070
:100080008301000083010000830100008301000060
:100090008301000083010000830100008301000050
:1000A0008301000083010000830100008301000040
:1000B0008301000083010000830100008301000030
:1000C00083010000830100008301000000F002F8BA
:1000D00000F03AF80AA090E8000C82448344AAF1A8
:1000E0000107DA4501D100F02FF8AFF2090EBAE8A6
:1000F0000F0013F0010F18BFFB1A43F0010318475C
:100100002406000044060000103A24BF78C878C1D5
:10011000FAD8520724BF30C830C144BF04680C600D
:10012000704700000023002400250026103A28BF55
:1001300078C1FBD8520728BF30C148BF0B60704759
:100140001FB51FBD10B510BD00F0A6F81146FFF792
:10015000F7FF00F070FA00F0C4F803B4FFF7F2FF05
:1001600003BC00F0D9FA000009488047094800475D
:10017000FEE7FEE7FEE7FEE7FEE7FEE7FEE7FEE757
:10018000FEE7FEE704480549034A054B70470000B7
:10019000A9040000CD000000C0000010C002001043
:1001A000C000001053EA020C00F069802DE9F04B0A
:1001B0004FF00006002B1FBFB3FA83F503FA05F4D6
:1001C00024FA05F65E4012BF1643B2FA82F502FA2F
:1001D00005F4C5F120051EBF22FA05FC44EA0C0413
:1001E000203556EA044C4FEA144418BF641C4FF003
:1001F00000084FF00009904271EB030C39D300293D
:1002000019BFB1FA81F701FA07F6B0FA80F700FAE0
:1002100007F6C7F120071EBF20FA07FC46EA0C06C6
:100220002037B6FBF4FCA7EB0507103F07F01F0BC8
:10023000CBF120060CFA0BFB2CFA06F644BFB346B2
:100240000026202FA4BF5E464FF0000B5BEA060C91
:1002500008BF4FF0010B19EB0B09ABFB027C48EB1D
:100260000608C01B06FB02CC0BFB03CC71EB0C0198
:10027000C1E70B46024641464846BDE8F08B13B540
:100280004FF000004FF00001AFF30080BDE81C40CC
:100290007047704770477047754600F029F8AE46C2
:1002A00005006946534620F00700854618B020B582
:1002B000FFF768FFBDE820404FF000064FF0000751
:1002C0004FF000084FF0000B21F00701AC46ACE8FE
:1002D000C009ACE8C009ACE8C009ACE8C0098D466B
:1002E00070470446AFF300802046FFF736FF00005A
:1002F000004870476000001070470000FFFFFFFFDC
:100300002DE9F04781480068C0F3016003287CD1E3
:100310007F48006810F0030006D0012833D002287F
:100320005FD003282ED100E000BF78480068C0F3FA
:10033000074000F101044FF002017648D0F8880030
:10034000C0F30E0000F10100A1FB0001724B4FF061
:10035000000CA0FB037901FB039100FB0C1122466A
:1003600063463846FFF71EFF05466C480068C0B27A
:1003700000F1010422464FF000032846FFF712FF68
:10038000674908605DE061480068C0F3074000F11C
:1003900001044FF002015F48D0F88800C0F30E005E
:1003A00000F10100A1FB00105E4A4FF0000CA1FB20
:1003B000027900FB029001FB0C012246634638469D
:1003C000FFF7F0FE054655480068C0B200F1010491
:1003D00022464FF000032846FFF7E4FE504908602C
:1003E0002FE04A480068C0F3074000F101044FF0D5
:1003F00002014848D0F88800C0F30E0000F1010067
:10040000A1FB00124FF4004000E01BE04FF000039E
:10041000A1FB007902FB009001FB03012246384654
:10042000FFF7C0FE05463D480068C0B200F1010478
:1004300022464FF000032846FFF7B4FE3849086013
:1004400000BF2FE03248006810F0030006D00128FA
:1004500010D0022819D0032823D100E000BF2F4874
:100460000068C0B200F101002B49B1FBF0F02C494B
:10047000086016E029480068C0B200F1010029496F
:10048000B1FBF0F0264908600BE024480068C0B2D8
:1004900000F101004FF40041B1FBF0F02049086089
:1004A00000BF00BFBDE8F08720201F490860194841
:1004B000D0F8A00110F0200F05D000BF1A48006846
:1004C00010F0400FFAD00320144908601748114972
:1004D000C1F8A8011648174908604FF001000C49FF
:1004E00008604FF00400A1F10401086012481349AC
:1004F000086040F201100749C1F8C80108460068C9
:1005000020F4704040F480400860704788C00F407D
:100510000CC10F4000C00F4000093D0004C10F4056
:1005200000000010001BB700A0C10F4055515155ED
:1005300055545554ACC10F40DEF7EFEFC4C00F4027
:100540006E4800686E4948636E4800686E4951F80D
:10055000200000016A49486100206C49086004E0FD
:100560006A480068401C6949086068480068B0F53E
:100570007A7FF5D3614840686149486361484068C3
:10058000614951F8200000015D49486100205F4940
:10059000086004E05D480068401C5C4908605B48F6
:1005A0000068B0F57A7FF5D35448806854494863B1
:1005B00054488068544951F820000001504948616E
:1005C00000205249086004E050480068401C4F4930
:1005D00008604E480068B0F57A7FF5D34748C06898
:1005E000474948634748C068474951F8200000011F
:1005F0004349486100204549086004E043480068D9
:10060000401C4249086041480068B0F57A7FF5D344
:100610004FF47F603A49C86100203C49086004E01B
:100620003A480068401C3949086038480068B0F50D
:100630007A7FF5D37047FFF737FFFFF761FE344845
:10064000006834490840324908600846C06820F410
:100650007F10C8602A48006840F47F60284908601D
:100660000846006A40F0F060086235E00020274943
:10067000086004E025480068401C244908602348BD
:100680000068B0F57A7FF5D31E480068E8B9092004
:100690001C49086008464068401E4860084640689B
:1006A00098B90920486008468068401E886008465E
:1006B000806850B9092088600846C068401EC8603C
:1006C0000846C06808B90920C860FFF739FF0D481F
:1006D0000068401E0B490860C8E700200B4908600D
:1006E00004E00A480068401C0849086007480068A0
:1006F0004CF250318842F4D37047000008000010DB
:1007000000C009201C0000102C0000105400001034
:1007100000C00240FF0000FF01491820ABBEFEE709
:1007200026000200440700000000001060000000E6
:1007300008010000A4070000600000106002000033
:1007400024010000C0C62D000200000000000000CF
:100750000000800000000001000080010000000097
:100760000900000009000000090000000900000065
:100770003F000000060000005B0000004F0000008A
:10078000660000006D0000007D0000000700000012
:100790007F0000006F00000000000000000000006B
:0407A0000000000055
:04000005000000CD2A
:00000001FF
